:020000040800F2
:10000000A80D0020C909000871010008730100084B
:100010007501000877010008790100080000000060
:100020000000000000000000000000007B0100084C
:100030007D010008000000007F0100088101000828
:10004000E3090008E3090008E3090008E3090008E0
:10005000E3090008E3090008E3090008E3090008D0
:10006000E3090008E3090008E3090008E3090008C0
:10007000E3090008E3090008E3090008E3090008B0
:10008000E3090008E3090008E3090008E3090008A0
:1000900085010008E3090008E3090008E3090008F6
:1000A000E3090008E3090008E3090008E309000880
:1000B000E3090008E3090008E3090008E309000870
:1000C000E3090008E3090008E3090008E309000860
:1000D000E3090008E3090008E3090008E309000850
:1000E000E3090008E3090008E3090008E309000840
:1000F000E3090008E3090008E3090008E309000830
:10010000E3090008E3090008E3090008E30900081F
:10011000E3090008E3090008E3090008E30900080F
:10012000E3090008E3090008E3090008E3090008FF
:10013000DFF810D001F068FB01F014FB0048004725
:1001400089010008A80D002010B5002080F3108858
:100150004FF4A06000F050F90121084600F0E5FBE3
:10016000BDE810400121014800F084BA00023000CF
:100170007047FEE7FEE7FEE7FEE77047704770470F
:1001800001F05EBA704700001C494FF00060086043
:10019000FFF7DAFF1A4C206828B9042001F08CFB25
:1001A00001F03EFA206001F055FA01F045FC15A17E
:1001B00000F027FE00F046F801F03EFC00F0C0FD24
:1001C00000F054F8F8E70EB50C4605464FF47A7186
:1001D0000A46684601F065FA01F02EFC00F0B0FD19
:1001E000684601F069FA0028F6D001F025FC2346A4
:1001F0002A4608A100F005FEEEE7000008ED00E049
:100200005800002070726F6772616D2073746172A4
:10021000740D0A0057726F6E6720706172616D65B0
:10022000746572732076616C75653A2066696C65D9
:10023000202573206F6E206C696E652025640D0A81
:100240000000000008B50121042000F06EFB4FF40F
:100250008070ADF8000010208DF8030002208DF8AA
:10026000020069460D4800F076F908BD0C484EF6CC
:1002700060224168491C4160914205D900214160DA
:10028000017881F001010170027804484FF4807117
:100290000AB100F0CEB900F0CEB90000000801406C
:1002A000000000200CB500214B480191009102682C
:1002B00042F4803202604FF4A063026802F400321C
:1002C0000092019A521C0192009A12B9019A9A4224
:1002D000F3D10268920333D5012100913F490A68A6
:1002E00042F010020A600A6822F003020A600A68FB
:1002F00042F002020A604168416041684160416821
:1003000041F480614160416821F47C1141604168A1
:1003100041F4E8114160016841F0807101600168B9
:100320008901FCD5416821F003014160416841F039
:10033000020141604168C1F381010229FAD10CBD7B
:1003400000910CBD244810B5016841F00101016025
:100350004168234A114041600168224A114001600E
:10036000016821F480210160416821F4FE014160AF
:100370004FF41F018160FFF795FF1B494FF00060AC
:10038000086010BD144910B54868184A10F00C03F5
:10039000174803D0042B01D0082B0AD0026049680B
:1003A000134AC1F30311121D515C0268CA40026076
:1003B00010BD4A684B6802F470124FF0020413F447
:1003C000803F04EB924202D04B689B0301D5094B5E
:1003D00000E0064B5A43E1E70010024000200240D3
:1003E0000000FFF8FFFFF6FE08ED00E000127A00C3
:1003F0000800002000093D002849084328490860FA
:10040000704770B50F23C47801780122F4B1244CF1
:100410002468457804F4E064C4F5E064240AC4F177
:100420000406E3408478B5401C402C4301F1E021F0
:10043000230181F80034007800F01F018A40400950
:10044000800000F1E020C0F8002170BD01F01F0025
:1004500082404809800000F1E020C0F8802170BD92
:10046000104A114001430E48001F016070470C4ABA
:10047000121D0029116801D0014300E08143116081
:1004800070474FF0E0210428086903D020F00400F1
:100490000861704740F00400FAE700000000FA0528
:1004A0000CED00E080FFFF1F914910B5884206D196
:1004B0000121042000F04BFA002104203BE08D498B
:1004C000884206D10121082000F041FA00210820CD
:1004D00031E08949884206D10121102000F037FA25
:1004E0000021102027E08549884206D101212020E3
:1004F00000F02DFA002120201DE08149884206D11C
:100500000121402000F023FA0021402013E07D4922
:10051000884206D10121802000F019FA00218020B4
:1005200009E0794988420AD184150121204600F06A
:100530000EFA00212046BDE8104000F008BA10BDB8
:1005400010B50121084600F002FA0021BDE8104074
:10055000012000F0FCB9F0B5CA78002502F00F03C5
:10056000D20601D58A7813430A784FF00F0E12F0A5
:10057000FF0F4FF001021DD0D0F800400F8802FAA3
:1005800005F63740B74211D14FEA850C0EFA0CF749
:1005900024EA070703FA0CF43C43CF78282F02D053
:1005A000482F02D002E0466100E006616D1C082D74
:1005B000E4D304600C88FF2C1ED944685FF0000669
:1005C00006F1080702FA07F50F882F40AF420FD156
:1005D0004FEA860C0EFA0CF7BC4303FA0CF73C43C7
:1005E000CF78282F00D14561CF78482F00D1056101
:1005F000761C082EE4D34460F0BD4FF6FF710180F5
:10060000022181700421C170704702460020926867
:100610000A4200D001207047806880B270470246CD
:100620000020D2680A4200D001207047C06880B222
:10063000704701617047416170470AB101617047BD
:1006400041617047C160704741F4803282618161CD
:1006500082618169806970472C4B10B51A684FF62A
:100660008074224042EA00100843186010BD2849F7
:10067000C8617047F0B5254C002801DAE36900E055
:100680006368420D120185B2C0F301579540C0F373
:100690000346032F05D0C2020AD50322B24093437A
:1006A00007E023F07062636823F07063636002E028
:1006B000AB4343F0706201B12A43002801DAE261E2
:1006C000F0BD6260F0BD10B58A0721F003040F4948
:1006D000130F21440F228C689A4094438C608A68DF
:1006E000984002438A6010BD0949C1F8DC00704798
:1006F00000080140000C01400010014000140140BE
:1007000000180140001C0140002001400000014091
:1007100000002042A448016841F0010101604168E5
:10072000A24A114041600168A14A1140016001687C
:1007300021F480210160416821F4FE0141604FF401
:100740001F018160704798490A6822F480320A606C
:100750000A6822F480220A60B0F5803F07D0B0F525
:10076000802F03D1086840F4A02008607047086813
:1007700040F48030F9E70246002053098A49012BF2
:100780000AD0022B0AD0496A02F01F0201239340CB
:100790000B4200D0012070470968F5E7096AF3E7CA
:1007A00018B500204FF4A06400903120FFF7E3FF5C
:1007B0000099491C0091A14201D00028F5D03120B8
:1007C000FFF7D9FF002800D0012018BD76490A683C
:1007D00022F0F80242EAC0000860704775490860DC
:1007E0007047714A5368084323F47C1318435060E0
:1007F00070477049086670476B4A516821F00301E1
:100800000143516070476848406800F00C00704731
:10081000654A516821F0F001014351607047624A16
:10082000516821F4E0610143516070475E494A68B4
:1008300022F4605242EAC000486070475A4A0029D8
:10084000517A01D0014300E0814351727047594908
:10085000C1F8D8007047544A516821F4404101431F
:10086000516070475049002281F8202081F82020F3
:10087000012802D0042802D1052081F82000704709
:100880004D490860704748490A6A02430A62704746
:10089000494944390860704730B543494A6812F005
:1008A0000C03464A03D0042B01D0082B21D0026050
:1008B0004A680F23424C03EA1212A35C0268DA4032
:1008C00042604B68072505EA1323E35C22FA03F331
:1008D00083604B6805EAD323E35CDA40C260496871
:1008E000032303EA9131231F595CB2FBF1F101614B
:1008F00030BD4A684B6802F470124FF0020413F4E2
:10090000803F04EB924202D04B689B0301D52D4BF4
:1009100000E02A4B5A43CAE7234A0029516901D013
:10092000014300E08143516170471F4A00299169EA
:1009300001D0014300E08143916170471A4A0029C8
:10094000D16901D0014300E08143D1617047164A6B
:100950000029D16801D0014300E08143D160704794
:10096000114A0029116901D0014300E0814311615E
:10097000704711494039086070470E49C864704794
:100980000949C87170470848416A41F08071416265
:100990007047054A0146002092680A4200D00120B3
:1009A0007047014988727047001002400000FFF84C
:1009B000FFFFF6FE000042428004424200127A002D
:1009C0002000002000093D000648804706480047F7
:1009D000FEE7FEE7FEE7FEE7FEE7FEE7FEE7FEE7EF
:1009E000FEE7FEE745030008310100082DE9F84F56
:1009F0008246DDE90A4B0126984691460D46084697
:100A0000374602E0B0FBF9F07F1C4845FAD2B84502
:100A100000D947465FEACB7017D1B4B15FEA8B705B
:100A200002D5B8F1000F02D0202000900BE030205A
:100A3000FBE75046641E009900F0EBF8DAF80C0072
:100A4000002838DB0CB1A742F3D3DAF80C000028F9
:100A500031DB00BFB8F1010F02D9A8F1010803E0B2
:100A6000B5FBF6F0484502D306FB09F6F2E7DFF8DE
:100A7000848200BFB5FBF6F000FB165518F8001095
:100A8000504600F0C6F8DAF80C00002803DBB6FB8D
:100A9000F9F6002EEED15FEACB700CD0002C0AD014
:100AA000A74208D220215046641E00F0B2F8DAF8BE
:100AB0000C000028F2DABDE8F88FF0B587B01446D4
:100AC00002AA002582E823001E460695CDF81450A0
:100AD00014F8011B39B1252908D002A800F099F8B3
:100AE00005980028F4DA059807B0F0BD0020012130
:100AF0002278232A1ED02B2A19D02D2A02D0302A60
:100B000008D102E040F0010001E040F00200641C66
:100B10000029EDD100222178A1F130030A2B0CD25B
:100B200002EB820201EB4202303A641CF3E740F030
:100B30000400ECE740F00800E9E70023CFB22E2FD5
:100B40000CD100BF14F8011FA1F130070A2F05D204
:100B500003EB830301EB4303303BF3E76C290DD038
:100B600068290BD070294AD00BDC252914D05829CC
:100B70002AD063290CD0642911D112E014F8011F86
:100B8000ECE773292BD0752916D0782907D11BE003
:100B90003068011D3160017802A800F03AF8641C49
:100BA0009EE731680F1D37600968CDE900200A22F1
:100BB00002A800F03BF8F2E731680F1D37600968C2
:100BC000CDE900200A2206E031680F1D3760096870
:100BD000CDE90020102202A8FFF708FFDFE7306808
:100BE000011D3160D0F8007017F8011B0029D6D024
:100BF00002A800F00EF805980028F5DACFE7306873
:100C0000011D316001680820CDE90005034610226E
:100C1000E1E710B5D0E90142531C9C4205D30468BA
:100C2000A1548360C168491CC16010BD2DE9FC5FFF
:100C30000E008146DDE90C47C6F100009846934658
:100C4000824600D40846012503E000BF90FBFBF07C
:100C50006D1C5845FADAA84500D9454624B1002E46
:100C600001DB780700D5641EB80702D5B8F1000F84
:100C70000FD0F8070DD164B1A5420AD22021484611
:100C8000641EFFF7C6FFD9F80C000028F3DABDE8B0
:100C9000FC9FD9F80C000028F9DB002E02DA56463A
:100CA0002D2102E0780707D52B214846FFF7B1FF39
:100CB000D9F80C000028EADB07F0030002280FD166
:100CC000B8F1000F0CD15CB1A54209D230214846E1
:100CD000641EFFF79EFFD9F80C000028F3DAD6E770
:100CE000CDE9004743465A4631464846FFF77EFE67
:100CF000CDE70000761A000870B5044640680D463E
:100D000010B101684968884700206060032D01D058
:100D1000401E70BD042000F0CFFD67490160606097
:100D20000168C968BDE87040084710B50446002056
:100D30002080606003212046FFF7DEFF204610BDC3
:100D40002DE9F0438046406889B000284BD05B48CD
:100D500000F080FE0646D8F804000168496988471B
:100D6000D8F80400016889698847B04205D2D8F8EC
:100D700004000168896988470646002E33D0202E7A
:100D800000D920264D4DE9463446284600F062FE43
:100D900010B3844200D90446D5E90201814206D845
:100DA0002246484600F0AAFCE868204413E0A888E0
:100DB0002A88081A101A87B2BC42F1D93A46484626
:100DC00000F09CFCE21B09EB0700696800F096FC50
:100DD00068682044C01BE860D8F804003246016807
:100DE0008B686946984709B0BDE8F08370B5054641
:100DF000324800F0E5FD04462846FFF7A1FF2046F3
:100E000070BD0FB438B5054606A800904FF40074C5
:100E10006B4621462A48059AFFF74FFE00210091B4
:100E2000A04200DD204682B225492846FFF7DEFFBA
:100E300038BC5DF814FB70B5204C06460D462046C4
:100E400000F010FE60B1A068057021886068014460
:100E5000A068401CA060814202D82188401AA0608E
:100E60003046BDE870406BE770B505460C46084655
:100E700000F068FC82B22146104800F0A1FD28462F
:100E8000BDE870405CE710B5406820B10168C969F1
:100E90008847002800D0012010BD09782CE70748BA
:100EA0004FF4007200F11001028041608160C16066
:100EB0001146406800F03BBC901A0008600000201A
:100EC0007002002010B5F74C032020616061F6A08D
:100ED000A06104F1A800E0614FF48060206200206E
:100EE000A0626062F0A12166E06204F5956161662E
:100EF00010212067C4E91A106067EEA1E01D00F020
:100F000028FCEDA1204600F024FC2020A07110BD9B
:100F10002DE9F047C4681746894606464FF0000899
:100F20003069A04201D9051B02E0B168201A0D1AF0
:100F3000B0686D1E001BA84200D80546BD4200D314
:100F40003D4670682A462044494600F0D7FBB06809
:100F50007F1B2C44A844A944A04200D10024F46083
:100F6000002FDDD14046BDE8F0872DE9F041044671
:100F70008846D4E90207C51BE16860681646084444
:100F8000B54206D9414600F0B9FBB819E060BDE8AA
:100F9000F0812A46414600F0B1FB761B08EB0501C3
:100FA0003246606800F0AAFBE660F0E72DE9F04702
:100FB000BC4D0746164628780C4608B9FFF782FF55
:100FC00007EB470005EBC007A046D7E91B950024B7
:100FD00060374D4511D9B868441BB44200D334463C
:100FE000786822464119404600F088FBB868361BF5
:100FF0002544A044A84200D10025A9EB0500B04239
:1010000000D206463EB1786832464119404600F0AB
:1010100075FB3444354404B13D612046A3E710B567
:10102000EFF31184202383F31188FFF7BFFFE1B2B0
:1010300081F3118810BD2DE9F0410E46994900EB6E
:10104000400001EBC0041546D4E909011834884278
:1010500002D1A068401E08E0216988422169A1EB05
:101060000000F7D3A168401E084485420BD92169CE
:10107000281A08442061A06802E02169091A216148
:1010800021698142F9D2D4E90201471A4FF00008E0
:10109000E1686068AF42084409D92944C4F80C10DB
:1010A00016F8011B00F8011B6D1EF9D16FE73A46D7
:1010B000314600F023FB3E44C4F80C80ED1BA768CA
:1010C000A7F10107E4D162E72DE9F0410F46754928
:1010D00000EB400001EBC0041546A26A666A1834B2
:1010E000B24226D8A068801B411EA9420AD360687C
:1010F0007119304417F8012B00F8012B6D1EF9D13E
:10110000E16014E01144A94220D38046A84214D8DB
:10111000606842463044394600F0F0FAA5EB080218
:10112000154607EB0801606800F0E8FAE560012069
:101130002DE7901B401EA84208D360682A46304421
:10114000394600F0DBFA7019E060F0E700201EE796
:1011500070B50E46534900EB400001EBC005144644
:10116000E86A183520B101280FD0022805D113E014
:10117000284600F046FAA04201D2002411E022469F
:1011800031462846FFF7F1FE0BE0284600F039FA19
:10119000A042F4D20446F2E731462846FFF7B8FEF3
:1011A0000446204670BD2DE9F04107463D481546EE
:1011B0000E46007808B9FFF785FEEFF31184202072
:1011C00080F311882A4631463846FFF7C1FFE1B265
:1011D00081F31188DBE670B505460C46084600F041
:1011E000B1FA024621462846BDE87040DBE708B563
:1011F000012269460020FFF712FF012802D04FF0BC
:10120000FF3008BD9DF8000008BD10B5FFF7EFFFE7
:101210000028FBDB10BD10B5224C207808B9FFF781
:1012200051FED4E91B10814201D0012010BD0020E5
:1012300010BD1C4900EB400001EBC000C16E006F07
:10124000081A70472DE9F041164C07469846207859
:1012500015460E4608B9FFF735FEEFF31182202040
:1012600080F311886169002000EB400304EBC303A5
:101270005B6E13B1401C8142F6DC81420CDD00EB59
:10128000400104EBC10100230F660B67C1E919653A
:10129000CB66C1F8748001E04FF0FF30D1B281F32A
:1012A000118874E6F00200205465726D696E616CFD
:1012B0000000000052545400534547474552000077
:1012C0002DE9F041D44C07469846207815460E4645
:1012D00008B9FFF7F7FDEFF31182202080F31188A2
:1012E0002169002000EB400304EBC303DB6913B169
:1012F000401C8142F6DC81420CDD00EB400104EB36
:10130000C10100238F61C1E907658B62C1F82C80A0
:101310004B6201E04FF0FF30D1B281F3118836E625
:101320002DE9F047BC4F0446DDF8209038781D4683
:101330001646884608B9FFF7C5FD3869A04218D996
:10134000EFF31180202181F31188B34A04EB4401AB
:1013500002EBC10134B1C1F81880C1E90765002270
:101360008A624A62C0B280F31188C1F82C900020D2
:10137000F9E54FF0FF30F6E52DE9F047A64F0446BA
:10138000DDF8209038781D461646884608B9FFF7E4
:1013900099FD7869A04218D9EFF31180202181F3DB
:1013A00011889D4A04EB440102EBC10134B10022D3
:1013B000C1F860800A67C1E91965CA66C0B280F3E6
:1013C0001188C1F874900020CDE54FF0FF30CAE5D8
:1013D00070B5914C05460E46207808B9FFF772FDAE
:1013E0002069A8420ED9EFF31182202080F31188E2
:1013F00005EB450004EBC0008661D0B280F3118894
:10140000002070BD4FF0FF3070BD70B5824C0546B6
:101410000E46207808B9FFF755FD6069A8420ED93D
:10142000EFF31182202080F3118805EB450004EBD7
:10143000C0000666D0B280F31188002070BD4FF066
:10144000FF3070BD70B5744C05460E46207808B963
:10145000FFF738FD2069A8420ED9EFF31182202052
:1014600080F3118805EB450004EBC000C662D0B2E2
:1014700080F31188002070BD4FF0FF3070BD70B553
:10148000654C05460E46207808B9FFF71BFD6069DC
:10149000A8420ED9EFF31182202080F3118805EBCA
:1014A000450004EBC0004667D0B280F311880020ED
:1014B00070BD4FF0FF3070BD04E52DE9F8430446E0
:1014C0005548007808B9FFF7FDFCFF2000258DF88E
:1014D00000004FF0FF39102C2DD250484E4E005DC9
:1014E0008DF801001836EFF31187202080F3118862
:1014F000307DDFF8288100F00300A8F10108022800
:101500000CD0304600F07DF802280FD388F8004058
:10151000022269463046FFF728FD08E088F80040BF
:10152000022269463046FFF7F3FC00E04D46F8B270
:1015300080F3118800E04D462846BDE8F8832DE988
:10154000F05F824634488B46007808B9FFF7BAFC52
:101550004FF0FF37BAF1100F42D2DFF8BC90584677
:1015600009F1180900F0EEF80546EFF31188202084
:1015700080F31188484600F044F8044699F81400B6
:10158000264E10F00300A6F1010604D0012807D072
:10159000022807D11FE0281D84421CD2002415E038
:1015A000042C01D23C4611E05146484600F01CF89C
:1015B000201F854200D305462A4659464846FFF774
:1015C000A7FC04463178484600F00EF808F0FF000A
:1015D00080F3118805E05146484600F005F8EBE736
:1015E0003C462046BDE8F09F08B5FF228DF800205C
:1015F0000A4A515C8DF8011002226946FFF788FC07
:1016000008BD0269C1688A4203D88068401A104444
:1016100000E0501A401E7047F00200203100002008
:1016200010B5044600202060FEF7ACFE204610BD39
:101630000168491C0160016821F0004101607047A8
:1016400010B500F0EBF9FFF7F3FF29494FF00070F8
:10165000086010BD10B527484FF4FA514FF0E02450
:101660000068B0FBF1F0B0F1807F0BD220F07F403A
:10167000401E60612049F02081F8140D0020A06117
:10168000072020616FF00400FEF7FBFE206940F0A8
:101690000100206110BD026803689B1A8B42FBDBCE
:1016A000704770B515460E46044600F0B7F900685D
:1016B00084E86100204670BD10B5044600F0AEF924
:1016C00000682168411A01D521F0004162688A4210
:1016D00002DC2060012010BD002010BDECE710B539
:1016E000044600F09BF9006820606068A06010BDAF
:1016F00004ED00E0080000200FE000E040EA0103F4
:101700009B0703D009E008C9121F08C0042AFAD2B7
:1017100003E011F8013B00F8013B521EF9D270477B
:10172000D2B201E000F8012B491EFBD27047002223
:10173000F6E710B513460A4604461946FFF7F0FFD0
:10174000204610BD421C10F8011B0029FBD1801A55
:101750007047034611F8012B00F8012B002AF9D13C
:101760001846704770B5054C054D03E020682044CD
:101770008047241DAC42F9D170BD0000F81A000862
:10178000FC1A000800F00BB8034870470248001D1F
:10179000011F8860001D704744000020704710B58D
:1017A00000F00DF8016919B100220261884701E0DB
:1017B00080688047AFF3008010B5AFF3008070B54C
:1017C000FFF7E4FF04680546A4B9202000F0C2F842
:1017D000040011D0094900202C60C4E90001084927
:1017E000A1602073206160610649A06109B100F029
:1017F0001DF8E061204670BDAFF3008000000000DE
:10180000B917000800000000064C074D06E0E0682C
:1018100040F0010394E8070098471034AC42F6D337
:10182000FEF78AFCD81A0008F81A000810B58820BC
:1018300000F090F8002801D00021017010BD80292F
:1018400002D808B1017809B100207047012100F8E1
:10185000081B704718B100F10802914201D0002026
:1018600070470021017070474020704710B5FFF7A6
:1018700023FE012010BD10B50020FFF794FC80B2BC
:1018800010BD0120704710B500F004F8BDE810400D
:1018900000F00EB80149016070470000B81A000856
:1018A000704700000149016000F002B8B81A000852
:1018B00010B500F027F810BD10B5040007D10124C1
:1018C00005E0FFF761FF006800B904488047204643
:1018D00000F040F80028F4D010BD00008517000883
:1018E0000020FFF75BBF02E008C8121F08C1002AF2
:1018F000FAD170477047002001E001C1121F002A91
:10190000FBD1704710B5002821D0114B0022001FD9
:10191000196803E0814203D80A4649680029F9D1D1
:1019200052B11368841A9C4204D1006818441060B4
:10193000104602E0506000E0186039B102680B1AEE
:10194000934203D10B681A4402604968416010BD9C
:1019500050000020F0B50B30154D20F00701002499
:10196000144A0FE003688B420BD38B4205D95E1AF1
:1019700043184768C3E9006700E04368136002C08A
:1019800004E0021D10680028ECD12046002802D196
:10199000286808B10020F0BD064A07481060074AD1
:1019A000121A22F00702C0E9002401202860D7E7BC
:1019B0005400002050000020AC070020A80900209F
:1019C0002DE9F04114460F46054600F04BF800287B
:1019D0001BD0844200D90446D5E90201814216D8C1
:1019E000A9882A88411A511A8EB2B4420FD33246BE
:1019F0003946FFF783FEA21BB9196868FFF77EFE20
:101A000068682044801BA8602046BDE8F08122461B
:101A10003946FFF773FEA8682044F4E710B5054C7B
:101A20002068002805D10420FFF746FFFFF7F8FDE6
:101A3000206010BD5800002010B5054C206800281B
:101A400005D10820FFF738FFFFF76FF9206010BDC0
:101A50005C000020D0E90212891A01D500880144F7
:101A600088B2704710B50446FFF7F4FF2188081AC2
:101A7000401E80B210BD30313233343536373839FC
:101A800041424344454600000000000000000000C1
:101A90009518000887180008771800086D180008C6
:101AA00000000000A1180008691800088318000849
:101AB000000000000000000000000000A518000861
:101AC000E1180008E118000800000000A118000853
:101AD000E1180008E1180008FC1A000800000020C6
:101AE00060000000E61800085C1B00086000002091
:101AF000480D0000F6180008A7F3FFFF01000000E2
:101B00000000000000A24A040000000000000000E5
:101B10000102030406070809020406080000000089
:101B200001020304010203040607080900303132F0
:101B30003334353637383941424344454600000096
:101B40000000000000000000000000000000000095
:0C1B500000000000000000000000000089
:0400000508000131BD
:00000001FF
